{
	"data": {
		"bytecode": {
			"linkReferences": {},
			"object": "608060405234801561001057600080fd5b5061019d806100206000396000f3fe6080604052600436106100295760003560e01c806379fa9bf21461002e578063dbdff2c114610038575b600080fd5b610036610063565b005b34801561004457600080fd5b5061004d6100ca565b60405161005a91906100ec565b60405180910390f35b600061006d6100ca565b90506000813461007d9190610136565b90503373ffffffffffffffffffffffffffffffffffffffff166108fc829081150290604051600060405180830381858888f193505050501580156100c5573d6000803e3d6000fd5b505050565b60006009905090565b6000819050919050565b6100e6816100d3565b82525050565b600060208201905061010160008301846100dd565b92915050565b7f4e487b7100000000000000000000000000000000000000000000000000000000600052601260045260246000fd5b6000610141826100d3565b915061014c836100d3565b92508261015c5761015b610107565b5b82820490509291505056fea2646970667358221220bfaad0b903f775cba0ab60733c13efa20492fc3f97a83bae1e588eb010174e8764736f6c634300080b0033",
			"opcodes": "PUSH1 0x80 PUSH1 0x40 MSTORE CALLVALUE DUP1 ISZERO PUSH2 0x10 JUMPI PUSH1 0x0 DUP1 REVERT JUMPDEST POP PUSH2 0x19D DUP1 PUSH2 0x20 PUSH1 0x0 CODECOPY PUSH1 0x0 RETURN INVALID PUSH1 0x80 PUSH1 0x40 MSTORE PUSH1 0x4 CALLDATASIZE LT PUSH2 0x29 JUMPI PUSH1 0x0 CALLDATALOAD PUSH1 0xE0 SHR DUP1 PUSH4 0x79FA9BF2 EQ PUSH2 0x2E JUMPI DUP1 PUSH4 0xDBDFF2C1 EQ PUSH2 0x38 JUMPI JUMPDEST PUSH1 0x0 DUP1 REVERT JUMPDEST PUSH2 0x36 PUSH2 0x63 JUMP JUMPDEST STOP JUMPDEST CALLVALUE DUP1 ISZERO PUSH2 0x44 JUMPI PUSH1 0x0 DUP1 REVERT JUMPDEST POP PUSH2 0x4D PUSH2 0xCA JUMP JUMPDEST PUSH1 0x40 MLOAD PUSH2 0x5A SWAP2 SWAP1 PUSH2 0xEC JUMP JUMPDEST PUSH1 0x40 MLOAD DUP1 SWAP2 SUB SWAP1 RETURN JUMPDEST PUSH1 0x0 PUSH2 0x6D PUSH2 0xCA JUMP JUMPDEST SWAP1 POP PUSH1 0x0 DUP2 CALLVALUE PUSH2 0x7D SWAP2 SWAP1 PUSH2 0x136 JUMP JUMPDEST SWAP1 POP CALLER PUSH20 0xFFFFFFFFFFFFFFFFFFFFFFFFFFFFFFFFFFFFFFFF AND PUSH2 0x8FC DUP3 SWAP1 DUP2 ISZERO MUL SWAP1 PUSH1 0x40 MLOAD PUSH1 0x0 PUSH1 0x40 MLOAD DUP1 DUP4 SUB DUP2 DUP6 DUP9 DUP9 CALL SWAP4 POP POP POP POP ISZERO DUP1 ISZERO PUSH2 0xC5 JUMPI RETURNDATASIZE PUSH1 0x0 DUP1 RETURNDATACOPY RETURNDATASIZE PUSH1 0x0 REVERT JUMPDEST POP POP POP JUMP JUMPDEST PUSH1 0x0 PUSH1 0x9 SWAP1 POP SWAP1 JUMP JUMPDEST PUSH1 0x0 DUP2 SWAP1 POP SWAP2 SWAP1 POP JUMP JUMPDEST PUSH2 0xE6 DUP2 PUSH2 0xD3 JUMP JUMPDEST DUP3 MSTORE POP POP JUMP JUMPDEST PUSH1 0x0 PUSH1 0x20 DUP3 ADD SWAP1 POP PUSH2 0x101 PUSH1 0x0 DUP4 ADD DUP5 PUSH2 0xDD JUMP JUMPDEST SWAP3 SWAP2 POP POP JUMP JUMPDEST PUSH32 0x4E487B7100000000000000000000000000000000000000000000000000000000 PUSH1 0x0 MSTORE PUSH1 0x12 PUSH1 0x4 MSTORE PUSH1 0x24 PUSH1 0x0 REVERT JUMPDEST PUSH1 0x0 PUSH2 0x141 DUP3 PUSH2 0xD3 JUMP JUMPDEST SWAP2 POP PUSH2 0x14C DUP4 PUSH2 0xD3 JUMP JUMPDEST SWAP3 POP DUP3 PUSH2 0x15C JUMPI PUSH2 0x15B PUSH2 0x107 JUMP JUMPDEST JUMPDEST DUP3 DUP3 DIV SWAP1 POP SWAP3 SWAP2 POP POP JUMP INVALID LOG2 PUSH5 0x6970667358 0x22 SLT KECCAK256 0xBF 0xAA 0xD0 0xB9 SUB 0xF7 PUSH22 0xCBA0AB60733C13EFA20492FC3F97A83BAE1E588EB010 OR 0x4E DUP8 PUSH5 0x736F6C6343 STOP ADDMOD SIGNEXTEND STOP CALLER "
		},
		"gasEstimates": {
			"creation": {
				"codeDepositCost": "82600",
				"executionCost": "129",
				"totalCost": "82729"
			},
			"external": {
				"getRandomNumber()": "337",
				"payMeBack()": "infinite"
			}
		},
		"methodIdentifiers": {
			"getRandomNumber()": "dbdff2c1",
			"payMeBack()": "79fa9bf2"
		}
	},
	"abi": [
		{
			"inputs": [],
			"name": "getRandomNumber",
			"outputs": [
				{
					"internalType": "uint256",
					"name": "",
					"type": "uint256"
				}
			],
			"stateMutability": "pure",
			"type": "function"
		},
		{
			"inputs": [],
			"name": "payMeBack",
			"outputs": [],
			"stateMutability": "payable",
			"type": "function"
		}
	]
}